:020000040800F2
:10000000B86100205D0200084B2B0008372700086C
:10001000492B00086D070008594A0008000000003D
:100020000000000000000000000000009D0100082A
:100030006F07000800000000F9010008F92F000810
:1000400077020008770200087702000877020008AC
:10005000770200087702000877020008770200089C
:10006000770200087702000877020008770200088C
:10007000770200087702000877020008770200087C
:10008000770200087702000877020008770200086C
:10009000770200087702000877020008770200085C
:1000A000770200087702000877020008770200084C
:1000B0007702000877020008B530000877020008D0
:1000C000770200087702000877020008770200082C
:1000D000770200087702000877020008770200081C
:1000E000770200087702000877020008770200080C
:1000F00077020008770200087702000877020008FC
:1001000077020008770200087702000877020008EB
:1001100077020008770200087702000877020008DB
:1001200077020008770200087702000877020008CB
:1001300077020008000000000000000077020008BD
:10014000770200087702000877020008552D0008A2
:10015000770200087702000877020008770200089B
:10016000770200087702000877020008770200088B
:10017000770200087702000800000000000000007D
:100180007702000877020008DFF80CD000F01CFAB4
:100190000048004755550008B86100202C4B1968ED
:1001A0000868B0E8F04F80F30988BFF36F8F4FF015
:1001B000000080F3118870470000000008480068C4
:1001C000006880F308884FF0000080F3148862B65E
:1001D00061B6BFF34F8FBFF36F8F00DF00BF00BF6B
:1001E00008ED00E0DFF80C00016841F470010160E7
:1001F000704700BF88ED00E0EFF30980BFF36F8F19
:10020000134B1A681EF0100F08BF20ED108A20E96A
:10021000F04F106009B44FF0500080F31188BFF325
:100220004F8FBFF36F8F06F05FF84FF0000080F341
:10023000118809BC19680868B0E8F04F1EF0100F6B
:1002400008BFB0EC108A80F30988BFF36F8F704746
:1002500064000020EFF305807047000006488047E7
:1002600006480047FEE7FEE7FEE7FEE7FEE7FEE79B
:10027000FEE7FEE7FEE7FEE7993000088901000887
:100280002DE9F05F0546002092469B4688460646CB
:10029000814640241BE0284641464746224600F05E
:1002A000EEF853465A46C01A914110D311461846EB
:1002B000224600F0D5F82D1A67EB01084F4622467A
:1002C0000120002100F0CCF817EB00094E41201E60
:1002D000A4F10104DFDC484631462A464346BDE826
:1002E000F09F40EA01039B0703D009E008C9121FF1
:1002F00008C0042AFAD203E011F8013B00F8013BE0
:10030000521EF9D27047D2B201E000F8012B491E0B
:10031000FBD270470022F6E710B513460A460446A2
:100320001946FFF7F0FF204610BD2DE9FE4F81EA88
:10033000030404F0004421F0004100944FF0000B4E
:1003400023F0004350EA01045ED052EA03045BD07C
:10035000C3F30A54C1F30A552C44A4F2F3340194B4
:10036000A0FB0254C1F3130141F48011C3F3130342
:1003700043F4801301FB024400FB034E840A970AF6
:1003800044EA815447EA8357A4FB076802958D0A23
:1003900005FB07854FEA932C04FB0C542705029DAF
:1003A0004FEA065847EA1637B5EB08056EEB070C1F
:1003B000870E920E47EA811742EA8312A7FB0201D9
:1003C000B6EB0B0164EB00042B0D43EA0C335E1813
:1003D00044EB1C50DA465146E7FB0201C5F3130417
:1003E0004FEA0B3343EA14534FEA0432019C43EAC9
:1003F0000603A4F10C040294009CCDE900B400F0C3
:1004000094F803B0BDE8F08F00200146F9E70EB57F
:1004100040F2334102910021CDE900110A460B461A
:1004200000F083F803B000BD01F0004330B421F0C8
:10043000004150EA010206D00A0DA2F56072C1F334
:100440001301002A02DC30BC00207047440F44EA4C
:10045000C104C100E01830BC00EBC25000F01FB86E
:10046000202A04DB203A00FA02F100207047914074
:10047000C2F1200320FA03F3194390407047202A69
:1004800004DB203A21FA02F00021704721FA02F33E
:10049000D040C2F12002914008431946704700291C
:1004A000A8BF7047401C490008BF20F001007047FA
:1004B00010B4B0FA80FC00FA0CF050EA010404BF5A
:1004C00010BC704749B1CCF1200421FA04F411FAB0
:1004D0000CF118BF012121430843A3EB0C01CB1DF4
:1004E0004FEA00614FEA102042BF002010BC704765
:1004F00000EBC35010440029A4BF10BC7047401C3F
:10050000490008BF20F0010010BC704710B5141E50
:1005100073F1000408DA401C41F1000192185B41BC
:100520001A4301D120F0010010BD2DE9F04D924693
:100530009B4611B1B1FA81F202E0B0FA80F22032AA
:100540009046FFF78DFF04460F4640EA0A0041EA55
:100550000B0153465A46084313D0114653EA010093
:1005600019D0C8F140025046FFF789FF05460E46F4
:10057000504659464246FFF773FF084305D0012015
:1005800004E020463946BDE8F08D0020054346EAE8
:10059000E0762C4337430A986305E40AA0EB080091
:1005A0000022FD0A44EA47540A3002D500200146E1
:1005B000E9E7010510196941DDE9084500196941BC
:1005C000BDE8F04DA2E70000064C074D06E0E068EC
:1005D00040F0010394E8070098471034AC42F6D38A
:1005E000FFF7D6FD247000084470000870B58C1821
:1005F00010F8015B15F0070301D110F8013B2A1137
:1006000006D110F8012B03E010F8016B01F8016B23
:100610005B1EF9D12B0705D40023521E0DD401F81F
:10062000013BFAE710F8013BCB1A921C03E013F8E8
:10063000015B01F8015B521EF9D5A142D8D300201D
:1006400070BD0000464910B54A6822F440324A6045
:100650004A6843681A434A6001684A6822F4807213
:100660004A6001684A68036942EA03224A600168F5
:100670004A6822F040724A6001684A6883681A43F7
:100680004A6001688A6822F400628A6001688A68A8
:10069000C3681A438A60816A6FF07062D142016850
:1006A0008A6822F070628A6001688A680CD0836A66
:1006B0001A438A6001688A6822F040528A600168A1
:1006C0008A68C36A1A4301E022F040528A600168D6
:1006D0008A6822F002028A6001688A68037E42EA20
:1006E00043028A6090F82010002901684A680FD000
:1006F00042F400624A6001684A6822F460424A603B
:1007000001684A68174C436A04EB43331A4301E01B
:1007100022F400624A600168CA6A22F47002CA6266
:100720000168CA6A838B104C04EB03531A43CA62F4
:1007300001688A6822F400728A6001688A6890F809
:10074000303042EA43228A6001688A6822F480627B
:100750008A6001688A68406942EA8020886010BD2A
:100760000023014000E0FFFF0000F0FFFEE77047BC
:100770007047000078B50024009490F83C20012ACE
:1007800019D0012280F83C200A6807230568092A4D
:1007900013D9EE680A3A02EB420293409E43EE60A0
:1007A0000B788A680A3B03EB43039A400368DD68D1
:1007B0002A43DA6010E0022078BD2E6902EB420283
:1007C00093409E432E610B788A6803EB43039A4063
:1007D00003681D692A431A614A681F23072A13D236
:1007E00005686E6B521E02EB820293409E436E635D
:1007F0000B790A885B1E92B203EB83039A4003686D
:100800005D6B2A435A6327E005680D2A12D22E6BCE
:10081000D21F02EB820293409E432E630B790A881B
:10082000DB1F92B203EB83039A4003681D6B2A43DC
:100830001A6311E0EE6A0D3A02EB820293409E4386
:10084000EE620B790A880D3B92B203EB83039A4068
:100850000368DD6A2A43DA62164B0568144A9D4232
:1008600006D10D68122D03D1556845F480055560F9
:1008700005689D4218D10B68102B01D0112B13D1A4
:10088000536843F400035360096810290CD10A49E6
:100890000A4A0968B1FBF2F101EB8101490000E06D
:1008A000491E00910029FBD180F83C40002078BD12
:1008B00000230140002001406000002040420F0062
:1008C0000068C06C704770B504004FF0000503D09D
:1008D000206C002610B107E0012070BD204600F01A
:1008E0001DF8666484F83C60206CC00610D4206C4F
:1008F00020F4885040F0020020642046FFF7A2FE5A
:100900006664206C20F0020040F00100206400E0EA
:10091000012584F83C60284670BD000010B586B003
:10092000044614216846FFF7F5FC11492068884207
:100930001CD110480021026842F4807202600068F5
:1009400000F4807005900B481438026842F00102F0
:100950000260006800F0010005900820009003206C
:10096000CDE901016946044800F0ACF906B010BDBC
:100970000020014044380240000002402DE9F041CF
:10098000044600680D4681684FF0000749050BD505
:100990008068C00508D5206C40F02000206484F8F1
:1009A0003C700120BDE8F08100F07AFA06460FE0C5
:1009B000681C0DD025B100F073FA801BA84207D93E
:1009C000206C40F00400206484F83C700320E9E7C8
:1009D000206800688007EBD521686FF0120008607E
:1009E000206C40F4007020642068816811F0405F42
:1009F00013D1217E89B9C16A11F4700F02D08068C9
:100A000040050AD4206C20F480702064206CC0045F
:100A100003D4206C40F0010020640020C2E70000F5
:100A200018B50021009190F83C20012A07D001223E
:100A300080F83C2002689368DB0702D011E00220B6
:100A400018BD936843F0010393602A4A2A4B126849
:100A5000B2FBF3F202EB420200E0521E0092002AC7
:100A6000FBD102689368DB0741D0036C40F201645C
:100A7000A34343F48073036453685B0505D5036C9B
:100A800023F4005343F480530364036CDB0404D564
:100A9000436C23F00603436400E0416480F83C109B
:100AA00016496FF02203136049680068CA061449AA
:100AB00006D088421BD1816811F0405F13D016E048
:100AC0008842F8D00F4A904203D1D1F80423D206CD
:100AD000F1D00D4A90420AD1D1F8041301F01F0160
:100AE0001029E8D303E0816841F080418160002053
:100AF00018BD00006000002040420F0000230140AC
:100B000000200140002101400022014070B5040096
:100B100003D094F8200010B104E0012070BD2046FD
:100B200000F082F82068016821F00201016000F005
:100B3000B7F90546052604E000F0B2F9401B0A2883
:100B400011D8206840688007F6D42068016841F019
:100B50000101016000F0A4F905460BE000F0A0F9E6
:100B6000401B0A2806D9606A40F40030606284F8AD
:100B70002060D2E720684068C007EFD0207E0128BF
:100B8000206801683DD021F080010160607E01286D
:100B90002068016838D021F040010160A07E012862
:100BA0002068016833D021F020010160E07E012837
:100BB000206801682ED041F010010160207F0128DB
:100BC0002068016829D021F008010160607F0128B8
:100BD0002068016824D021F004010160D4E90201F9
:100BE0000843D4E90412114308436168491E0843CD
:100BF0002168C86100206062012084F82000002084
:100C000070BD41F08001C0E741F04001C5E741F00F
:100C10002001CAE721F01001CFE741F00801D4E735
:100C200041F00401D9E7000010B586B00446142154
:100C30006846FFF76FFB17492068884228D116489D
:100C40000021026842F080620260026802F0806265
:100C50000592026842F000720260006800F00070C5
:100C600005900D481038026842F0020202600068E8
:100C700000F002000590602000900220CDE9010103
:100C800003200390092004906946044800F01AF8F4
:100C900006B010BD00680040403802400004024029
:100CA00070B5044600F0FCF80546601C02D004480C
:100CB0000078044400F0F4F8401BA042FAD370BD61
:100CC000540000202DE9F84F00224FF001080325C1
:100CD0004FF00F0E0B6808FA02F42340A3426ED1C6
:100CE0004E68012E05D0022E03D0112E01D0122EF7
:100CF00012D186684FEA420C05FA0CF7BE43CF6862
:100D000007FA0CF7374387604668A6430C79C4F3AB
:100D10000014944034434460C668570005FA07FC49
:100D20008C6826EA0C06BC403443C4604C68022C34
:100D300001D0122C13D1D40800EB8404A346D4F8BC
:100D4000209054074FEAD46A0EFA0AF629EA0609F7
:100D50000E6906FA0AF646EA0906CBF8206006682C
:100D60000C7926EA0C0604F00304BC40344304600A
:100D70004C68E40065D5364C266846F4804626600B
:100D8000246822F0030604F480440094314C344477
:100D9000A446D4F808489607370F0EFA07F6B4436E
:100DA0002D4EB04201D1002624E02C4EB04201D19C
:100DB00001261FE02A4EB04202D102261AE040E08E
:100DC000284EB04201D1032614E0274EB04201D193
:100DD00004260FE0254EB04201D105260AE0244E3C
:100DE000B04201D1062605E0224EB04201D10726CD
:100DF00000E00826BE402643CCF808681E4E346842
:100E00004F689C43FF0300D51C4334601A4C241DDB
:100E100026684F689E43BF0300D51E432660164ECA
:100E2000083634684F689C43FF0200D51C43346089
:100E3000114E0C3634684F689C43BF0200D51C43EA
:100E40003460521C102AFFF445AFBDE8F88F000053
:100E500044380240003001400000024000040240DB
:100E600000080240000C0240001002400014024042
:100E700000180240001C0240003C0140006908408C
:100E800000D001207047426931EA020200D1090412
:100E9000816170470AB1816170470904FBE7000076
:100EA00001488068704700005400002002488168B3
:100EB0000278114481607047540000200B4810B53F
:100EC000016841F400710160016841F480610160D2
:100ED000016841F480710160032000F073F80F2075
:100EE00000F006F800F024F8002010BD003C02409D
:100EF00070B50D4D04464FF47A712878B1FBF0F0CF
:100F00000A490968B1FBF0F001F0E8F848B9102C83
:100F100007D200222146501E00F034F800206C60F9
:100F200070BD012070BD0000540000206000002052
:100F30000C4882B0016841F480410160006800F40F
:100F4000804000900748001F016841F08051016017
:100F50000068002200F0805000900F21901E02B027
:100F600000F010B844380240002809DB00F01F02EE
:100F7000012191404009800000F1E020C0F80011FB
:100F800070470000F0B40E4B1B680C46C3F30223FD
:100F9000C3F10705042D00D90425191D072901D225
:100FA000002300E0DB1E012606FA05F1491E214060
:100FB00099409E40761E16403143F0BC03F04DBD73
:100FC0000CED00E0064900F0070208684FF6FF0349
:100FD000184040EA0220034A1043086070470000AE
:100FE0000CED00E00000FA05704700684162002047
:100FF0007047F0B50368586A39B19C6A4FF482763D
:1010000000EB144400204D1E0AE040EA02409862C2
:101010000FE006EB8007DF59401C04EB1744C0B219
:10102000A842F6D344EA02404FF4807202EB8101F9
:1010300058500020F0BDD0F8040402F04EBDC1EBC2
:10104000C10200EB8202D0F80404926C02F0A1BC51
:10105000C1EBC10200EB8202D0F80404D2F80822EE
:1010600002F0FABCD0F8040402F039BD70B50446B1
:101070000B0601F00F00C0EBC00104EB81014FF043
:1010800001024FF0000503D581F83D203C3103E01B
:1010900081F8FD5101F5FE71087094F8BC03012838
:1010A00008D084F8BC23206803F08CF884F8BC5383
:1010B000002070BD022070BD70B5044601F00F0025
:1010C0006268904201D9012070BD0B0601F00F014A
:1010D000C1EBC10104EB81014FF001024FF00005AB
:1010E00003D581F83D203C3103E081F8FD5101F545
:1010F000FE718D70087094F8BC03012808D084F844
:10110000BC23206803F03AFA84F8BC53002070BD79
:10111000022070BD2DE9F04104460F0601F00F00DA
:10112000C0EBC00104EB81014FF001064FF0000558
:1011300003D581F83D603C3103E081F8FD5101F5B4
:10114000FE7108708A60CB704A7802B1C880022BA9
:1011500000D10D7194F8BC03012809D084F8BC6358
:10116000206802F07FFF284684F8BC53BDE8F08178
:101170000220FBE770B50C4601F00F05C5EBC50179
:1011800000EB8101C1F81032C1F808220023C1F838
:10119000143281F8FD3181F8FC51036901F5FE71CB
:1011A000012B00D10A612207027C006803D003F002
:1011B0003DFA002070BD03F029F9FAE770B5044646
:1011C0000D4601F00F006168884201D9012070BD11
:1011D00029064FF000064FF0010207D5C0EBC00111
:1011E00004EB810181F83D203C3107E0C5EBC501EE
:1011F00004EB810181F8FD6101F5FE718A700870D0
:1012000094F8BC03012807D084F8BC23206803F0BD
:10121000E1F9280702D007E0022070BD217C04F527
:101220007172206803F07EF984F8BC63002070BD01
:1012300070B50C4601F00F05C5EBC50100EB81014F
:101240000B658A6400234B65012381F83D3001F86A
:101250003C5F0369012B00D10A612207027C006810
:1012600003D003F0E3F9002070BD03F0CFF8FAE7F4
:101270002DE9FC5F05680446284603F000FB0028C2
:101280007ED1206803F027FB002879D0206803F086
:1012900022FB800704D52068416901F00201416109
:1012A000206803F018FB010304F571704FF0010A88
:1012B0004FF0080B009075D50026206803F0EAFA7D
:1012C0000746DFF808946BE0F80767D0F1B22068B2
:1012D00003F0F9FA8046C00707D005EB4611C1F8C4
:1012E00008AB3146204601F03BFD5FEA087032D57D
:1012F0002068016C00EB46100191D0F8081B2269B0
:10130000012A019A0FD0F24B9A4214D1090403D555
:101310004FF40041C0F8081B204600F0C9FA2069CC
:1013200001280FD013E04A4505D9090403D54FF42D
:101330000041C0F8081B204600F0BAFA0198484561
:10134000EDD804E020680121009A03F0EBF805EBEA
:101350004611C1F808BB5FEAC86004D505EB461129
:101360001020C1F8080B5FEA88600ED520690128BB
:1013700004D120680121009A03F0D4F8202100E074
:10138000A1E105EB4610C0F8081B5FEA884005D5CF
:1013900005EB46104FF40051C0F8081B7F08761C7F
:1013A000002F91D1206803F096FA40034FF0000916
:1013B0005FD5206803F067FA0746002657E0F80774
:1013C00053D0F1B2206803F06CFA8046C00726D0F3
:1013D00006F00F020AFA02F0D5F834288243C5F865
:1013E000342805EB4610C0F808A92069012807D168
:1013F000C6EBC60004EB8000D0E9112111448164E2
:10140000F1B22046FFF71BFE2069012807D136B94B
:10141000206D20B920680121009A03F083F85FEA6B
:10142000087003D505EB4611C1F808B95FEAC8603A
:1014300004D505EB46111020C1F808095FEA4860A1
:1014400004D505EB46104021C0F808195FEA887002
:1014500004D505EB46100221C0F808195FEA0860C0
:1014600003D53146204601F0E9FC7F08761C002FA9
:10147000A5D1206803F02FFA002811DAD5F8040866
:1014800020F00100C5F8040894F8F40301282BD0DB
:10149000204600F0F1F92068416901F00041416106
:1014A000206803F018FA00050BD5D5F80808C00726
:1014B00002D0204600F024FA2068416901F400615E
:1014C0004161206803F007FAC00461D5D5F804082B
:1014D00020F00101C5F804181021206803F0B0F9CC
:1014E00000214FF67F321AE084F8F4930021204661
:1014F000FFF77AFDCFE700BF05EB4110C0F80829E0
:10150000D0F8003923F40013C0F80039C0F8082BD4
:10151000D0F8003B23F40013C0F8003B491C60687E
:101520008842E9D8D5F81C0840F00111C5F81C180C
:10153000206B002828460DD0D0F8840840F00B001E
:10154000C5F88408D5F8440840F00B012846C5F8D2
:1015500044180DE0D0F8140842F22B010843C5F8F6
:101560001408D5F8100840F00B012846C5F81018EB
:10157000D0F8000820F4FE61C5F80018217C20682E
:10158000009A02F0CFFF2068416901F48051416167
:10159000206803F0A0F9800415D5206802F0A2FDB0
:1015A000206803F05FF9E06000F05CFA0146227BFE
:1015B000206803F0CBF9204600F048F92068416923
:1015C00001F400514161206803F085F9C00634D56B
:1015D0002068816921F0100181612F6A07F00F00F6
:1015E000C0EBC00004EB8006C7F3434006F5FE766F
:1015F000022802D0062811D01AE047F6F070074200
:1016000016D0C7F30A1217462846F16803F067F9A7
:10161000F0683844F060B069384408E00822284691
:10162000009903F05CF9B069C7F30A110844B0618E
:101630002168886940F010008861206803F04BF948
:10164000000707D5204600F01BF92168486900F023
:1016500008004861206803F03EF9C00208D5002167
:10166000204600F037F82168486900F4801048618E
:10167000206803F030F9800208D50021204600F0F0
:101680002DF82168486900F400104861206803F0D3
:1016900022F9400007D52046FFF7CDFC20684169BC
:1016A00001F080414161206803F015F940070AD537
:1016B00020684568680702D52046FFF7D3FC2068FC
:1016C000416829434160BDE8FC9F00000A30544F47
:1016D0000A31544FD0F8040402F04CBAD0F8040494
:1016E00002F04ABA2DE9F0418AB0040005D094F81E
:1016F000BD032668002520B108E001200AB0BDE83E
:10170000F08184F8BC53204600F05EF8032084F892
:10171000BD03F06BC00500D42561206802F070FEA7
:1017200004F11001282288466846FEF7DAFD94E8A5
:101730000F0002F0F1FC0226C8BB0021206803F074
:10174000DCF8002001270EE0C0EBC00104EB8101B2
:1017500081F83D7001F83C0FC880CD708D60CD6080
:10176000401CC0B24D6161688142EDD8002011E09B
:10177000C0EBC00104EB810181F8FD5181F8FC014F
:1017800081F8FF51C1F80452C1F80852401CC0B2A0
:10179000C1F8105261688142EAD828224146684661
:1017A000FEF79FFD94E80F0002F064FD10B184F88D
:1017B000BD63A2E784F8385084F8BD73206802F056
:1017C0004DFD00209AE7000010B586B004461421B4
:1017D0006846FEF79FFD2068B0F1A04F2FD1194851
:1017E0000021026842F001020260006800F001007E
:1017F00005904FF4C05000900220CDE90101032074
:1018000003900A20049069460F48FFF75BFA0D48E1
:10181000001D016841F0800101600A481430016830
:1018200041F4804101600068002200F4804005908E
:1018300005214320FFF7A6FB4320FFF795FB06B0E9
:1018400010BD0000303802400000024070B5044670
:10185000C068012570B1022801D0FEF789FF294632
:10186000D4F8040402F0D9F9D4F80404BDE87040B7
:1018700002F099B90025F2E7D0F8040402F0BBB9F0
:10188000D0F8040402F0BDB910B5044690F8BC03CA
:1018900001280BD0012084F8BC0384F8381020689C
:1018A00003F042F8002084F8BC0310BD022010BDF4
:1018B000D0F8042400F57171104602F0BAB910B5E1
:1018C0000446006894F8BC13012906D0012184F86D
:1018D000BC13A16A012902D008E0022010BDA16951
:1018E000012903D0816B41F480318163206802F0CB
:1018F000A9FC206802F08EFF002084F8BC0310BD14
:1019000010B50446D0F8040402F0D2F92068D0F8EB
:10191000001E41F00101C0F8001E206A002804D01A
:101920000248016841F00601016010BD10ED00E0C1
:101930002DE9F0470E46050065D0DFF81481D8F890
:101940000000F7B200F00F00B04207D288F8007034
:10195000D8F8000000F00F00B04254D128683D4C88
:10196000810712D5400703D5206840F4E05020607D
:101970002878000703D5206840F460402060206884
:10198000A96820F0F000084320602878C0072DD017
:10199000304968680839012812D0022813D003287A
:1019A00011D00968890700292DDA216821F0030187
:1019B00001432160FFF774FA814641F2883A0EE054
:1019C00009688903EFE709688901ECE7FFF768FA1E
:1019D000A0EB0901514502D90320BDE8F08720683A
:1019E000696800F00C00B0EB810FEFD1D8F800105F
:1019F000404601F00F01B14207D90770006800F0BE
:101A00000F00B04201D00120E7E72878400705D554
:101A10002068E96820F4E050084320602878000737
:101A200006D52068296920F4604040EAC1002060A2
:101A300000F03EF82168084AC1F30311515CC84028
:101A40000649086006480068FFF752FA0020C4E71C
:101A5000003C0240083802406C6900086000002029
:101A60005800002001480068704700006000002016
:101A70000448054900680968044AC1F38221515CA1
:101A8000C840704760000020083802407C690008A8
:101A90000448054900680968044AC1F34231515CB1
:101AA000C840704760000020083802407C69000888
:101AB000154810B5006810F00C02144813D01449F2
:101AC000042A0FD0082A0ED10F4C241F2268236845
:101AD00002F03F025B0207D52068C0F38810A0FB2C
:101AE000010106E0084610BD2168C1F38811A1FB81
:101AF00000010023FEF7C4FB2168C1F30141491C2A
:101B00004900B0FBF1F010BD083802400024F40099
:101B1000001BB7002DE9F84F040076D02078DFF8DD
:101B200038A3CE4DC00749D0DAF800105046C1F3B3
:101B30008101012908D00068C0F3810002280AD180
:101B4000281D0068400206D52868800336D56068E5
:101B50000028E2D032E06068B0F5803F10D0B0F5E8
:101B6000A02F286810D020F480302860286820F446
:101B7000802028606068A0B1FFF792F906460CE06B
:101B8000286840F48030F4E740F480202860F7E7CC
:101B9000FFF786F9801B642873D828688003F7D57F
:101BA0000CE0FFF77DF9064605E000BFFFF778F986
:101BB000801B6428F0D828688003F7D42078DFF8E9
:101BC000A08280074FF000093ED5DAF80010504699
:101BD00011F00C0F09D00068C0F3810002280BD16E
:101BE0009D48001F0068400206D42868800715D56C
:101BF000E068012809D111E0E068B8B10120C8F817
:101C00000000FFF74DF9064605E020E1FFF748F92F
:101C1000801B0228C0D828688007F7D5286821696A
:101C200020F0F80040EAC10028600DE0C8F80090FC
:101C3000FFF736F9064604E0FFF732F9801B022869
:101C40001FD828688007F7D42078000722D5824E55
:101C5000844861696C3671B101210160FFF720F998
:101C6000074604E0FFF71CF9C01B022809D83068BA
:101C70008007F7D50EE0C0F80090FFF711F907468E
:101C800005E082E0FFF70CF9C01B02287DD8306820
:101C90008007F7D42078400768D5DFF8BCB100276B
:101CA0000BF1380BDBF80000C0000BD4DBF80010A0
:101CB00041F08051CBF80010DBF80000012700F064
:101CC00080500090684E3068C00510D4306840F4F1
:101CD00080703060FFF7E4F8009005E0FFF7E0F86F
:101CE0000099401A022850D83068C005F6D55A4EDF
:101CF000A068683601280FD00528306810D020F081
:101D000001003060306820F004003060A068B8B195
:101D1000FFF7C6F800900FE0306840F00100F4E7EC
:101D200040F004003060F7E7FFF7BAF80099411A75
:101D300041F28830814266D830688007F4D50EE0E1
:101D4000FFF7AEF8009007E0FFF7AAF80099411AF4
:101D500041F28830814256D830688007F4D42FB1E0
:101D6000DBF8001021F08051CBF80010A069D0B34F
:101D7000DAF800205146C2F38102022A4AD0022832
:101D8000484607D0C8F8600000E03CE0FFF788F85C
:101D900004463BE04746C8F86000FFF781F8064676
:101DA00005E000BFFFF77CF8801B02282BD82868CD
:101DB0008001F7D4D4E907010843A16A2B4A4908F6
:101DC00002EB0141626A41EA8211084394F82C1047
:101DD00040EA01612048001F016001203866FFF7DA
:101DE0005FF8044605E034E0FFF75AF8001B0228CC
:101DF00009D828688001F7D52BE000BFFFF750F81D
:101E0000001B022802D90320BDE8F88F2868800152
:101E1000F4D41EE00128F7D00868E26900F48001DC
:101E2000914214D1226A00F03F0191420FD147F64E
:101E3000C071626A0140914209D1A26A00F4403146
:101E4000914204D1E16A00F07060884201D0012023
:101E5000DAE70020D8E700000838024000380240E6
:101E600000004742800E4742007000400000FFFF24
:101E700070B5040005D00025A56294F8510010B19A
:101E800006E0012070BD84F85050204600F030F884
:101E9000022084F851002068016821F040010160AF
:101EA000D4E901010843D4E90312114308436169ED
:101EB0000843218B01F400710843E1690843216A5A
:101EC0000843A16A084321680860A069042101EA67
:101ED0001040616A0843216848602068C16921F4A4
:101EE0000061C1616565012084F85100002070BD6A
:101EF000F0B587B0044614216846FEF70BFA1C497A
:101F00002068884232D11B480024016841F4805186
:101F10000160006800F4805005901648143801688C
:101F200041F001010160016801F0010105910168C2
:101F300041F0020101600068022500F002000590F6
:101F4000A020CDE9000502AA0326052782E8D000DB
:101F500069460948FEF7B6FE1020CDE9000502AA41
:101F6000694682E8D0000548FEF7ACFE07B0F0BD38
:101F700000300140443802400000024000040240AA
:101F80002DE9F84F044690F8500000271D461646EC
:101F9000894601280DD04FF0010B84F850B0FEF7B0
:101FA0007FFF804694F85100BA46012804D00227EA
:101FB0008EE00220BDE8F88FB9F1000F7DD0002E31
:101FC0007BD0032084F85100C4F854A0C4F83090AA
:101FD000A686E686C4F838A0A4F83CA0A4F83EA0E3
:101FE000C4F844A0C4F840A0A068B0F5004F04D1E4
:101FF0002068016841F48041016020680168490659
:1020000003D4016841F040010160E068B0F5006F61
:10201000606803D030B3012E24D040E008B1012E17
:102020001CD1206B21680088C86006E020688168A8
:10203000890709D5216B0988C160206B801C20634A
:10204000E08E401EE08609E0FEF72AFFA0EB0800C4
:10205000A84202D3681C01D031E07DB3E08E002895
:10206000E4D11FE0206B21680078087306E0206847
:102070008168890709D5216B09780173206B401CA1
:102080002063E08E401EE08609E0FEF709FFA0EB2A
:102090000800A84202D3681C01D010E075B1E08EA0
:1020A0000028E4D142462946204600F019FF08B135
:1020B00020206065A06820B107E008E0FFE7032763
:1020C00006E02068C16880680090606D00B101275B
:1020D00084F851B084F850A038466BE710B5401E24
:1020E000B0F1807F01D3012010BD4FF0E02460618A
:1020F0000F21601702F0B1FC0020A06107202061D1
:10210000002010BD70B590F83C20012A32D0012487
:1021100080F83C40022280F83D2003685A689D68A0
:1021200022F070060A6832435A60134B02689A42E2
:1021300014D0B2F1804F11D0104B9A420ED0104BF8
:102140009A420BD00F4B9A4208D00F4B9A4205D0BF
:102150000E4B9A4202D00E4B9A4204D1496825F0A8
:1021600080031943916080F83D40002180F83C10C5
:10217000084670BD022070BD000001400004004010
:1021800000080040000C00400004014000400140F5
:102190000018004010B5040003D094F83D0010B1C1
:1021A00007E0012010BD002084F83C00204600F02C
:1021B0000DF8022084F83D00211D206800F08CFFFE
:1021C000012084F83D00002010BD000008B5006823
:1021D0000B49884212D10B48016841F004010160AB
:1021E0000068002200F00400009005211E20FEF788
:1021F000C9FEBDE808401E20FEF7B6BE08BD0000BF
:102200000008004040380240022180F83D1001687B
:102210008A6802F00702062A03D00A6842F0010227
:102220000A60012180F83D10002070470168CA68EB
:1022300042F00102CA600068816801F007010629C6
:1022400003D0016841F0010101600020704770B5C2
:10225000044690F83C00012817D0012584F83C5032
:10226000022084F83D002068826822F0770222F480
:102270007F4282600868502830D00DDC20284DD085
:1022800005DC98B310283BD148E0022070BD30280F
:1022900044D0402834D139E0602828D0702806D0B6
:1022A000B0F5805F2CD0B0F5005F29D10AE0CB6893
:1022B000D1E90121206800F080FF2068816841F0A9
:1022C000770109E0CB68D1E90121206800F075FFB2
:1022D0002068816841F48041816011E0CA684968E2
:1022E000206801F03FF85021206807E016E0CA6836
:1022F0004968206801F047F86021206800F067FF16
:1023000084F83D50002084F83C0070BDCA684968DC
:10231000206801F027F840212068EFE72268014695
:102320001046EBE710B586B0044614216846FDF769
:10233000F1FF0E492068884215D10D48016841F02F
:10234000020101600068032100F0020005904FF4D3
:10235000607000900220CDE902010190049069466E
:102360000448FEF7AFFC06B010BD000000080040B6
:10237000303802400004024070B5044690F83C003A
:102380000D4601280DD0012684F83C60022084F817
:102390003D0042B1042A18D0082A2AD00C2A4DD177
:1023A00039E0022070BD206800F01AFF20688169C2
:1023B00041F0080181612068816921F00401816197
:1023C000206881692A69114311E0206800F038FF14
:1023D0002068816941F4006181612068816921F48C
:1023E00080618161206881692A6941EA02218161F5
:1023F00024E0206800F05AFF2068C16941F008011C
:10240000C1612068C16921F00401C1612068C1690E
:102410002A69114311E0206800F07CFF2068C1693F
:1024200041F40061C1612068C16921F48061C1612A
:102430002068C1692A6941EA0221C16184F83D60CE
:10244000002084F83C0070BD10B5040003D094F85F
:102450003D0010B107E0012010BD002084F83C00D1
:10246000204600F00CF8022084F83D00211D206871
:1024700000F032FE012084F83D00002010BD7047BE
:1024800010B504460068012200F08AFE0B4920685E
:10249000884202D00A49884203D1416C41F400418C
:1024A00041642068816801F00701062903D00168B2
:1024B00041F001010160002010BD0000000001405A
:1024C0000004014070B5040004D094F839000025E0
:1024D00010B106E0012070BD84F83850204600F0AD
:1024E00023F8242084F839002068C16821F40051C1
:1024F000C160204600F05AFF2068016921F4904134
:1025000001612068416921F02A0141612068C168A8
:1025100041F40051C160E563202084F8390084F85B
:102520003A00002070BD00002DE9F04387B004465A
:1025300014216846FDF7EEFE4949DFF82081236843
:10254000474A1039032402250126082745484FF041
:10255000000C434515D1136843F40023136012683F
:1025600002F4002205920A6842F001020A6009683A
:102570008DE8700001F00101CDE904710394694612
:102580002EE0DFF8E480DFF8E49043452DD11068B9
:1025900040F480101060106800F480100590086806
:1025A00040F004000860086800F004000590086826
:1025B00040F0080008600868694600F008000590CF
:1025C0004FF480508DE86100CDE903474846FEF79F
:1025D00079FB04208DE86100CDE903476946244872
:1025E000FEF770FB07B0BDE8F083224F0726BB4221
:1025F00017D11B4A121D136843F0100313601268B1
:1026000002F0100205920A6842F001020A600968AD
:1026100001F0010105914FF4C0618DE82210694677
:1026200018E015488342DDD1106840F48020106026
:10263000106800F480200590086840F004000860ED
:102640000868694600F0040005904FF440608DE88A
:1026500021104846CDE90346C2E70000004C004087
:102660004038024000000240005000400008024094
:10267000000C024000100140004800402DE9F843E2
:10268000044690F839001F4616460D46202850D1C2
:10269000B5B1AEB194F8380001284AD0012084F8D1
:1026A00038004FF00008C4F83C80212084F839003D
:1026B000FEF7F6FBA6848146E68484F8388026E09F
:1026C0000120BDE8F883E08C401EE084A0684B4602
:1026D000B0F5805F4FF000024FF080012046009778
:1026E00003D000F0F7FEE8B90DE000F0F3FEC8B942
:1026F00028882168C0F308004860206908B16D1C73
:1027000005E0AD1C03E0216815F8010B4860E08C82
:102710000028D8D14B46002240212046009700F0E7
:10272000D9FE08B10320CCE7202084F8390000202E
:10273000C7E70220C5E7FEE7F0B500230A243025ED
:1027400037261F4611E000BFB4EB107F02D905EB1E
:10275000107C01E006EB107C01F813C001EB430C88
:1027600000015B1C8CF80170DBB29342ECD3F0BD2E
:102770007FB50024154800940194029412490394F3
:1027800001604FF48031C0E901140461047680F8DF
:1027900020400F49C0E90A140125C561C46080F8D2
:1027A00030404561FEF78FF808B1FDF7E1FF0320E7
:1027B000CDE90005694602940448FDF7DBFF0028D7
:1027C00001D0FDF7D5FF7FBD002001400C0800209F
:1027D0000100000F0D4810B50B4901601021416048
:1027E00000218160C160016141610176417681769D
:1027F000C17601774177FEF789F9002803D0BDE85B
:102800001040FDF7B5BF10BD00680040540800201F
:1028100000B587B002F08AFE02F0C8FD03F098F917
:1028200003F0C6FE1C2206496846FDF75AFD00214A
:10283000684603F0ADF90349086007B000BD000029
:1028400050690008000000202DE9F04387B01421F2
:102850006846FDF75FFD2F480024016841F0040140
:102860000160016801F004010591016841F08001F7
:102870000160016801F080010591016841F00101EA
:102880000160016801F001010591016841F0020158
:102890000160016801F002010591016841F0080141
:1028A00001600068DFF8709000F0080005900022D9
:1028B00054214846FEF7EEFADFF860804FF60347F2
:1028C000002239464046FEF7E5FA4EF2FF30022577
:1028D0008DE8310069461248FEF7F4F954200126CC
:1028E000CDE90006CDE9025469464846FEF7EAF90B
:1028F000CDE90254CDE9007669464046FEF7E2F99B
:10290000E8018DE8310069464846FEF7DBF907B07B
:10291000BDE8F0833038024000000240000402406D
:1029200000080240104810B50E4901604FF4827152
:10293000416000218160C1604FF400720161C0E913
:1029400005123022C0E90721416281620A21C16279
:10295000FFF78EFA002803D0BDE81040FDF708BF4E
:1029600010BD000000300140D00A002010B58EB02C
:1029700000240794089409940A940B941C21684637
:102980000C94FDF7C7FC2748254901600621C0E9E2
:1029900001141721C0E9031480218161FFF7FAFBBC
:1029A00008B1FDF7E5FE4FF48050079007A91D48D8
:1029B000FFF74DFC08B1FDF7DBFE1A48FFF744FDB9
:1029C00008B1FDF7D5FE0B940BA916480C94FFF740
:1029D00099FB08B1FDF7CCFE602000900C20CDE9FA
:1029E0000104042269460F480494FFF7C5FC08B1AE
:1029F000FDF7BEFE082269460A48FFF7BDFC08B194
:102A0000FDF7B6FE0C2269460648FFF7B5FC08B193
:102A1000FDF7AEFE0348FFF785FC0EB010BD0000C9
:102A200000080040280B00200C4810B50A4901603E
:102A30004FF416514160002181600C22C160C0E951
:102A400004128161C161FFF73DFD002803D0BDE89C
:102A50001040FDF78DBE10BD004C0040680B0020FB
:102A60000C4810B50A4901604FF4E1314160002182
:102A700081600C22C160C0E904128161C161FFF76D
:102A800021FD002803D0BDE81040FDF771BE10BD48
:102A900000500040A80B00200C4810B50A49016006
:102AA0004FF4E1314160002181600C22C160C0E936
:102AB00004128161C161FFF705FD002803D0BDE864
:102AC0001040FDF755BE10BD00100140E80B00207E
:102AD0000C4810B50A4901604FF4E1314160002112
:102AE00081600C22C160C0E904128161C161FFF7FD
:102AF000E9FC002803D0BDE81040FDF739BE10BD49
:102B000000480040280C002010B500220B490C485A
:102B100000F018FF08B1FDF72BFE0A49084801F044
:102B2000EDF808B1FDF724FE054801F03DF9002855
:102B300003D0BDE81040FDF71BBE10BD040000200F
:102B4000680C0020C8000020FEE7704770B5002424
:102B500004F1B000C0B2002100F0E8F800210846FE
:102B600000F0E4F80021102000F0E0F80025012139
:102B7000002000F0DBF86D1CEDB2802DF7D3641C53
:102B8000E4B2082CE4D370BD002210210148FEF706
:102B900081B9000000000240012210210148FEF727
:102BA00079B90000000002402DE9F0479846174629
:102BB000824600260C46DDF8209011E02146504662
:102BC00000F022F8554607E019F806000121761CAE
:102BD00000F0ACF86D1CEDB2BD42F5D3641CE4B25C
:102BE0004445EBD3BDE8F087002240210148FEF7C1
:102BF00051B9000000000240012240210148FEF7C7
:102C000049B900000000024010B50446B031C8B216
:102C1000002100F08BF8102040EA1410002100F091
:102C200085F804F00F00BDE8104040F001000021DD
:102C300000F07CB82DE9F041203A00240D46804692
:102C4000D7B27F2803D900208D1C8046EDB22946DB
:102C5000FFF7DAFF0F4E00BF04EB07100121305CD5
:102C600000F064F8641CE4B2082CF5D36D1CE9B2E2
:102C70004046FFF7C9FF002404EB07103044012150
:102C8000007A00F053F8641CE4B2082CF4D3BDE8D9
:102C9000F0810000846900082DE9F0478046002695
:102CA00008981D4691468A463446470821E0281B6D
:102CB000401EC1B20A2002F033FFB9FBF0F00A2136
:102CC000B0FBF1F201FB120026B9691E8C4201DA59
:102CD00030B101263030C2B207FB0480C0B203E03D
:102CE00007FB0480C0B220225146FFF7A3FF641CFB
:102CF000E4B2AC42DBD3BDE8F0872DE9F0411746E2
:102D00000E46044600250CE031462046FFF792FFB0
:102D10000834E4B2782C02D90024B61CF6B26D1C3B
:102D2000EDB27A5D002AEFD1BDE8F08113B511B1A3
:102D3000FFF732FF01E0FFF727FF4FF47A7301221C
:102D400069460348FFF71CF9FFF726FF1CBD00008A
:102D5000D00A00200148FEF78BBA0000040F0020C3
:102D60002DE9F041044600680E46016C00EB461563
:102D7000D5F8080B276920234FF40042012F08D013
:102D80002C4FB9424FD1010449D500BFC5F8082BDB
:102D90004DE0DFF8A4C05FEA007E04F5717711D53D
:102DA000614503D9000401D5C5F8082B2046FEF77C
:102DB0007FFD3A460121206801F0B4FB0820C5F8E8
:102DC000080B34E05FEA806E02D5C5F8083B2EE0C0
:102DD00010F0280F2BD1614501D90004D6D4C6EBE1
:102DE000C60004EB8000D5F8102BD0F80412C2F313
:102DF00012028A1AC0F81422D0F808221144C0F82E
:102E00000812F1B22046FEF723F986B9D4F8100271
:102E100068B93A460121206801F084FB07E080068A
:102E200001D5C5F8083BF1B22046FEF711F90020A4
:102E3000BDE8F0810A31544F0A30544F2DE9F84F64
:102E40000E46C1EBC60100EB810481460568D4E95A
:102E500014103C34884202D90120BDE8F88F081ACA
:102E6000A168814200D20846C01C870805EB4618BD
:102E70001BE000BFA0EB010AA068504500D28246CB
:102E80000AF10300870899F8100000901FFA8AF3EE
:102E9000F2B22846E16801F0CDFDE16801EB0A00DD
:102EA000E060A16901EB0A00A061D8F8180980B2BE
:102EB000B84205D3D4E90501814201D20028D9D115
:102EC000D4E90501884208D806F00F0101208840A6
:102ED000D5F834188143C5F834180020BDE7000048
:102EE00038B504461248134B0068B0FBF3F04FF4BA
:102EF0007A73584300906068B0F5827F0DD10B461D
:102F0000009200228021204600F016F870B1606D1A
:102F100040F020006065032038BD009830B1401EAD
:102F2000009020688068C0430006F6D5002038BDB8
:102F30006000002000366E012DE9F0411D46174665
:102F40000E460446DDF8188008E0681C06D0FDF740
:102F5000A7FFA0EB0800A8420BD255B120688068FB
:102F600036EA000030D00020B842EED10020BDE8A3
:102F7000F0812068416821F0E00141606068B0F5AF
:102F8000827F0BD1A068B0F5004F02D0B0F5806F02
:102F900004D12068016821F040010160A06AB0F509
:102FA000005F09D12068016821F4005101602068A8
:102FB000016841F400510160012084F851000020B3
:102FC00084F850000320D2E70120CDE7FFF79CFDF5
:102FD000074C084D4FF4FA7604212046FDF753FFC5
:102FE00001212846FDF74FFF304602F0C5FDF3E70B
:102FF000000002400004024010B5FDF757FF03F047
:10300000D3FB012803D0BDE8104003F05FBB10BD27
:1030100030B593B030216846FDF77CF914210CA837
:10302000FDF778F91A480025016841F080510160E8
:10303000006800F0805011901648016841F480410A
:1030400001600068022400F480401190012000908B
:10305000000401908001CDE906400C2008904FF457
:10306000A870CDE9090407200B906846FEF752FDD1
:103070000CA90F2081E831004FF4A0500F90E0021E
:10308000109005210CA8FEF753FC13B030BD0000D2
:1030900040380240007000400548016841F470016A
:1030A000016003494FF000608039086070470000FC
:1030B00088ED00E0074800680169C943C90707D1E6
:1030C000C168C943C90703D1891E016103F03AB938
:1030D00070470000280B0020F0B50268254C264DF3
:1030E000264E274F274B4FF0804CA04209D0604519
:1030F00007D0A84205D0B04203D0B84201D09842D0
:1031000004D122F0700E4A6842EA0E02A0421BD09F
:10311000604519D0A84217D0B04215D0B84213D09C
:10312000984211D0184DA8420ED0184DA8420BD08D
:10313000174DA84208D0174DA84205D0164DA842F9
:1031400002D0164DA84203D122F44075CA682A4322
:103150004D6922F080022A4302608A68C2620A68CE
:103160008262A04201D0984201D109690163012124
:103170004161F0BD00000140000400400008004033
:10318000000C0040000401400040014000440140A8
:103190000048014000180040001C00400020004092
:1031A00010B501F01F030121046A99408C430462A9
:1031B000016A9A401143016210BD10B5846842EA69
:1031C000032224F47F440A432243826010BD8268B4
:1031D00022F070020A4342F007018160704700004C
:1031E000F0B5026A22F001020262036A4268846951
:1031F000124E24F073050C682C4323F002058B68F3
:103200002B430D4DA84201D0B04205D123F0080751
:10321000CB683B4323F00403A84201D0B04205D160
:103220004D6922F4407215438A692A4342608461E1
:10323000496841630362F0BD0000014000040140A1
:10324000F0B5026A22F010020262026A43688469E1
:103250000D6824F4E64444EA05248D6822F0200237
:1032600042EA05120F4D104EA84201D0B04206D1DD
:10327000CF6822F0800242EA071222F04002A84200
:1032800001D0B04207D14D6923F4406343EA85037E
:103290008D6943EA85034360846149688163026202
:1032A000F0BD00000000014000040140F0B5026ADA
:1032B00022F480720262026A4368C46922F40072D6
:1032C00024F073050C68124E2C438D6842EA0522E7
:1032D0000E4DA84201D0B04206D1CF6822F4006260
:1032E00042EA072222F48062A84201D0B04207D10C
:1032F0004D6923F4405343EA05138D6943EA0513EE
:103300004360C4614968C1630262F0BD00000140CE
:103310000004014030B5026A22F480520262046A5D
:103320004268C3690D6823F4E64343EA05238D68C8
:1033300024F4005444EA0534084DA84202D0084D54
:10334000A84204D14D6922F4804242EA85124260CB
:10335000C36149680164046230BD0000000001409F
:103360000004014010B5036A046A24F001040462F9
:10337000846924F0F00444EA021423F00A020A43A8
:103380008461026210BD10B5036A23F0100303626A
:103390008369046A23F4704343EA023224F0A003F1
:1033A00043EA01118261016210BD00002DE9F04184
:1033B000044600680169E26821F44051114301614B
:1033C0002169A068E26908436169114308432168E3
:1033D000CA6849F20C639A430243CA602068416993
:1033E000A26921F4407111434161E0691927642504
:1033F0003226B0F5004F354A354920684FF00008B5
:1034000006D0884201D0904236D1FEF741FB35E02C
:10341000884201D0904202D1FEF73AFB01E0FEF76C
:1034200027FB61684A18A0FB070148EB0803FCF77B
:1034300027FF0146B0FBF5F00201B1FBF5F06FF09C
:103440001803584301EB800006EBC000B0FBF5F019
:1034500000F0F80002EB4002B1FBF5F0584301EB3D
:10346000800006EBC000B0FBF5F000F0070021681B
:1034700010448860BDE8F081FEF7FAFA61688B0FAE
:103480008A00A0FB0701FCF7FBFE0146B0FBF5F04C
:103490006FF01802504301EB800006EB0010B0FB08
:1034A000F5F000F0F002B1FBF5F002EB0012B1FB19
:1034B000F5F06FF01803584301EB800006EB0010A5
:1034C000B0FBF5F000F00F00D1E700000014014060
:1034D000001001402DE9F041984617460E4604467B
:1034E000069D1DE0681C1BD02DB1FDF7D9FCA0EB9B
:1034F0000800A84214D92068C16821F4D071C160C5
:103500002068416921F001014161202084F83900DF
:1035100084F83A00002084F838000320BDE8F081E8
:103520002068006836EA000004D00020B842D9D0F4
:103530000020F3E70120F9E710B5D0F88C2252689B
:103540009047002010BD134610B50A46002100F038
:1035500021FB002010BD134610B50A46002100F0E3
:10356000B0FB002010BD10B50446802100F08EFB9A
:103570002046BDE81040002100F088BB10B50521B1
:103580000023C0F86C121A46194600F003FB002015
:1035900010BD10B50223C261C0F86C32026213463E
:1035A0000A46002100F08DFB002010BD10B504215B
:1035B0000023C0F86C121A46194600F082FB002066
:1035C00010BD000010B50A46024903A000F0E2F861
:1035D000004810BD0C13002048494420436F6E661C
:1035E000696700001220088000487047240000200E
:1035F00010B50A46024903A000F0CCF8004810BDFF
:103600000C13002048494420496E7465726661635A
:10361000650000000420088000487047200000205A
:1036200010B50A46024903A000F0B4F8004810BDE6
:103630000C13002053544D6963726F656C6563749D
:10364000726F6E696373000010B50A46024903A0E9
:1036500000F0A0F8004810BD0C13002053544D3367
:10366000322048756D616E20696E746572666163A3
:103670006500000010B51A2008800A480168001D86
:103680000468001D0068081809D008220649FFF7E1
:1036900053F80549042210312046FFF74DF802483F
:1036A000801E10BD107AFF1F3A000020F8B50446B6
:1036B00048880D46010A08294BD2DFE801F04A0488
:1036C00009174A4A4048D4F88812207C0A6832E038
:1036D000207C02260028D4F88C0205D0C16A6846F6
:1036E00088470146467041E0816AF8E7C0B2062883
:1036F0002FD2DFE800F003080D12171CD4F888124F
:10370000207C4A6817E0D4F88812207C8A6812E08E
:10371000D4F88812207CCA680DE0D4F88812207C86
:103720000A6908E0D4F88812207C4A6903E0D4F8DA
:103730008812207C8A6969469047014616E0207C01
:1037400038B9D4F88C02416B68468847F5E7207C8D
:1037500020B129462046FFF706FFF8BDD4F88C02B9
:10376000016B68468847014607204870BDF8000095
:1037700048B1EA8852B1824200D90246ADF8002031
:103780002046FFF706FFE8880028E6D12046FFF72D
:103790000DFFF8BD70B5002300281ED0044600259B
:1037A00002E06D1CEDB2641C2678002EF9D10224D3
:1037B00004EB450414801278CA545B1C0322CA54DB
:1037C00000245B1C06E0CA545B1CDAB28C54521C09
:1037D000D3B2401C0278002AF5D170BD01004FF031
:1037E000000004D0012901D0022901D00220704735
:1037F00001207047D0F890020021017308467047FD
:1038000070B50446812100F0BBF80025E562D4F8CC
:10381000900218B101F092F9C4F89052002070BDE6
:103820000A21018000487047780100202221018090
:1038300000487047000100202221018000487047A5
:103840002401002022210180004870474801002007
:1038500010B5044604230322812100F08FF90120D2
:10386000E062102001F09EFEC4F8900218B1002121
:103870000173084610BD022010BD000038B5034694
:103880000022D0F89002ADF8002014460A7812F019
:10389000600216D0202A4AD14A78022A0ED0032A82
:1038A00006D00A2A06D00B2A41D18978016042E06D
:1038B00001222BE04988090A41603CE00122011DF8
:1038C00025E04A7832B1062A0BD00A2A23D00B2AE7
:1038D0002DD128E093F87402032828D102226946EA
:1038E00015E048882222B2EB102F05D1CA883F2A62
:1038F00000D93F22124809E02122B2EB102F16D145
:103900000F48CA881838092A00D9092201461846E2
:10391000FFF73FFE0FE093F87422032A07D101223C
:1039200000F10801F3E793F87422032A05D0184642
:10393000FFF719FE0224204638BD89788160FAE736
:103940008401002010B580B1D0F88C3213B100236F
:10395000C0F88C3209B1C0F88812012180F87412C5
:10396000027000F0C7F8002010BD022010BD10B595
:10397000D0F89802FDF7A0FBBDE81040FFF72EBF7E
:1039800010B5D0F89802FDF771FBBDE81040FFF7C5
:1039900025BF2DE9F0411746044651B1D4F88C02F9
:1039A00042691AB194F87402032851D00220BDE88C
:1039B000F081D4F86C32002504F11400022B03D0FE
:1039C000042B3AD0C3B33CE0D0E903639E4207D94D
:1039D000F11AC1608AB239462046FFF7BCFD12E0F9
:1039E0008068B0FBF3F103FB110199B9984211D340
:1039F000D4F8701288420DD2002211462046FFF7FB
:103A0000AAFDC4F8705200231A461946204600F059
:103A1000C1F816E0D4F88C02C16829B194F8740298
:103A2000032801D1204688478021204600F02EF946
:103A30002046FFF7A3FD04E0FFE78021204600F0C9
:103A400025F994F87802012804D184F8785201E02D
:103A5000204690470020AAE770B51546044649B1B4
:103A6000D4F88C0282691AB194F87402032830D019
:103A7000022070BDD4F86C1204F5A070032902D0A6
:103A800005291ED027E0D0E903218A420BD9531A19
:103A9000C3600846834200D303469AB229462046B3
:103AA000FFF751FD17E0D4F88C02016929B194F8B1
:103AB0007402032801D1204688472046FFF776FD8F
:103AC00009E000200146C4F86C02204600F0DEF850
:103AD00001E020469047002070BD0020704710B5DF
:103AE000012180F87412D0F88C2201795268904735
:103AF000002010BD10B5017839BB15490222C1F86C
:103B00000404C0F898124FF0A040086004204860F8
:103B10000020C1E90320C1E9062008624862C862AA
:103B200008630846FDF7DEFD08B1FCF721FE8021A1
:103B30000748FDF75AFA402200210548FDF759FAD7
:103B4000802201210248FDF754FA002010BD000038
:103B5000040F00200A0601F07F01D0F89802C1EBA3
:103B6000C10100EB810002D590F83E00704790F84B
:103B7000FE017047002070470020704710B51C46BA
:103B80001346D0F898022246FDF7C4FABDE810406B
:103B9000FFF724BE10B5D0F89802FDF7EBFABDE8A8
:103BA0001040FFF71BBE70B50022044640231146AB
:103BB000FFF7E4FF40260125C4F850613346002298
:103BC00080212046C4F84451FFF7D8FF6662A56102
:103BD00084F874520020C4F86C026060C4F87C025F
:103BE000D4F8900228B1D4F88C0200214268204613
:103BF0009047002070BD90F8751280F87412002074
:103C0000704710B590F87412032904D1D0F88C12C3
:103C1000C96901B18847002010BD017400207047B8
:103C200010B5D0F89802FDF72FFEBDE81040FFF761
:103C3000D5BD70B5044600F52070054600F04AF881
:103C40000120C4F86C02B4F88602C4F8700294F83B
:103C5000800210F01F010AD001290DD0022910D0D6
:103C600000F08001204600F011F8002070BD2946C8
:103C7000204600F09EF8F8E72946204600F0CAF9F1
:103C8000F3E72946204600F01DF9EEE710B5D0F81D
:103C90009802FDF793FABDE81040FFF79FBD10B5FD
:103CA000D0F89802FDF70BFEBDE81040FFF796BD77
:103CB00090F8741280F87512042180F874120020B4
:103CC000704710B5D0F89802FDF7B2FABDE8104081
:103CD000FFF784BD0A7802704A7842708A78CB7800
:103CE00002EB032242800A794B7902EB03228280A5
:103CF0008A79C97902EB0121C18070470246002010
:103D000011B1C2F88C1270470220704710B5D0F87C
:103D10008C2202241AB11268904700B90024204670
:103D200010BD000070B50E461E4D897804462970FE
:103D3000012931D894F8740202280BD003280FD03F
:103D400031462046FFF70FFC29782046BDE8704039
:103D5000FFF7F2BBD9B10320616084F8740209E077
:103D600071B16068884212D0C1B22046FFF7E4FB0F
:103D7000297861602046FFF7C9FF02280CD006E0D1
:103D8000022084F8740220466160FFF7D5FB2046CC
:103D9000BDE87040FFF70ABC31462046BDE87040E0
:103DA000FFF7E1BBC400002010B5FFF778FF00204B
:103DB00010BD2DE9F0410A78002612F0600208D00B
:103DC000202A01D0402A70D1D0F88C2292689047E6
:103DD0006DE04B78002201250A2B66D2DFE803F064
:103DE000405D6557650805652C29FFF75FFC5EE0BF
:103DF00004468888D8B9C888C8B94888802816D2A7
:103E000000F07F0794F87402032810D084F87672CB
:103E100039462046FFF704FF2046FFF7C7FB1FB1D6
:103E2000022084F8740242E084F874523FE0204695
:103E30003BE0FFF777FF3AE0CB88012B35D190F8D4
:103E40007432012B04D0022B02D0032B2DD104E0BD
:103E50008260012200F1080116E00122011D13E039
:103E600090F87422012A03D0022A01D0032A1CD11F
:103E7000CA88022A19D1C560D0F87C1209B1032181
:103E8000C160022200F10C01FFF783FB0FE04988BB
:103E900001290CD1C0F87C5211E090F87432012B4A
:103EA00008D0022B06D0032B04D0FFF75CFB304672
:103EB000BDE8F08149880129F9D1C0F87C22FFF7DB
:103EC00075FBF4E72DE9F0410A4604461078002717
:103ED000097910F060030AD0202B01D0402B50D17B
:103EE000D4F88C0211468368204698478FE0C0F3CF
:103EF0004110012806D05078D0B301282AD00328D9
:103F00003FD107E0D4F88C02114683682046BDE813
:103F1000F041184794F87402022802D0032872D1A5
:103F20000AE071B380296ED02046FFF7AFFE8021F2
:103F30002046FFF7ABFE6AE0508838B931B18029DE
:103F400004D0D08810B92046FFF7A0FE2046FFF726
:103F50002DFB5CE094F874020228E2D0032852D1D1
:103F6000508898BB4806F1D02046FFF700FDEDE7EA
:103F7000FFE794F874020026022803D0032842D1F8
:103F800012E040E009B180293DD1080601F07F0030
:103F900000EB800004EB800101D5143101E001F554
:103FA000A07102220E602AE0080601F00F0000EB6B
:103FB000800004EB80000AD5806920B301F07F0007
:103FC00000EB800004EB800514350BE01FE0D0F817
:103FD0004401C0B101F07F0000EB800004EB8005DC
:103FE00005F5A07541B1802906D02046FFF7B2FD46
:103FF00010B10120286000E02E60022229462046F0
:10400000FFF7C7FA03E011462046FFF7ACFA38463F
:10401000BDE8F08170B5054608780C4610F06000E8
:1040200003D0202801D0402816D195F87402012829
:1040300003D0022801D003280ED1207901280BD803
:10404000D5F88C02826828469047E188014306D162
:104050002846FFF7ABFA02E02846FFF784FA002073
:1040600070BD000070B50A78012302F00F054E788C
:10407000AB401B4CD0F81C58012E17D045EA034327
:10408000C0F81C3800EB4210D0F8002B12040BD4FF
:10409000D0F8002B0B89C978C3F30A031A4344EA0A
:1040A00081410A43C0F8002B002070BD9BB21D4324
:1040B000C0F81C5800EB4210D0F800391B04F3D4B0
:1040C000D0F800390D89C978C5F30A0589042B4356
:1040D00041EA82510B432343C0F80039E4E7000072
:1040E00000800010D0F800196FF30A01C0F8001921
:1040F000D0F80818C1F34101022905D1D0F8001900
:1041000041F00301C0F80019D0F8041841F480719F
:10411000C0F804180020704770B5044606990A9E3E
:10412000049D0D98012916D0E06840F04000E06041
:10413000204600F02BF8A16B1EB321F48031A1635F
:10414000012D07D1A16841F00601A160A16841F0ED
:104150002001A16070BDA16B21F48031A163E168F1
:10416000094A1140E160E16821F44011E160012851
:1041700003D1E06840F48010E060204600F006F8CB
:10418000DEE741F48031DAE7BFFFBDFF01220C49D1
:1041900002E0521C8A420BD80369002BF9DA02694B
:1041A00042F001020261012204E0521C8A4201D95C
:1041B000032070470369DB07F7D100207047000038
:1041C000400D030030B50B784D78012203F00F0449
:1041D00002FA04F4012DD0F83C5817D025EA044423
:1041E000C0F83C48D0F81C48097801F00F018A401B
:1041F00024EA0241C0F81C1800EB4310D0F8001B61
:104200000E4A1140C0F8001B002030BDA4B2A543E7
:10421000C0F83C58D0F81C48097801F00F018A40DA
:1042200091B28C43C0F81C4800EB4310D0F8001941
:10423000034A1140C0F80019E6E700000078F3EFE8
:10424000007833EC10B5D0F8041821F00201C0F862
:1042500004180320FCF724FD002010BD10B5D0F891
:10426000041841F00201C0F804180320FCF718FDFF
:10427000002010BD2DE9F04F0025DDE90BCB0E46E7
:104280000446DDF84090099F2846294604EB800249
:10429000C2F80411401C0F28F8D3B9F1000F2046D2
:1042A00018D0006820F400122260A06B40F40022B5
:1042B000A26308468846C4F8000ED4F800182046C9
:1042C000C4F80018BCF1010F10D0D0F8001841F06C
:1042D000030110E0806B40F40012A263A06B20F495
:1042E0000022A263A06B20F48022E1E7D0F800183E
:1042F0000BB141F00101C0F80018102100F0A0FA44
:1043000000B10125204600F08BFA00B1012540469E
:10431000C4F81088C4F81488C4F81C8800214FF031
:1043200000634FF090484FF67F3A14E004EB4112DF
:10433000D2F800C9BCF1000F06DA11B1C2F8008949
:1043400004E0C4F8003901E0C2F80009C2F810091D
:10435000C2F808A9491C8E42E8D8002115E000BF28
:1043600004EB4112D2F800CBBCF1000F06DA11B118
:10437000C2F8008B04E0C4F8003B01E0C2F8000B77
:10438000C2F8100BC2F808AB491C8E42E8D8D4F82A
:10439000101821F480722146C4F81028012F08D18A
:1043A000134AC1F83028D1F83018124A1143C4F822
:1043B0003018A0616FF0804060611FB9A06940F0C3
:1043C0001000A061A0690C490843A061BBF1000F77
:1043D00003D0A06940F00800A061B9F1010F03D13A
:1043E000A06906490843A0612846BDE8F08F000097
:1043F000000180000300010000383C800400004000
:10440000816821F0010181600020704770B50D784E
:104410004E78434CEBB200EB4313012E1FD0D3F880
:10442000100B6FF31200C3F8100BD3F8100B2040E1
:10443000C3F8100B486908B188684861D3F8100BBD
:1044400040F40020C3F8100BD3F8100B8C68C4F3B1
:1044500012042043C3F8100B012A55D058E04E69CE
:10446000002ED3F8106932D06FF31206C3F810692A
:10447000D3F810692640C3F810694E698C68A642CB
:1044800000D94C61D3F8104944F40024C3F8104912
:10449000D3F810494E69C6F312063443C3F81049E5
:1044A000012A22D000EB4512D2F8003943F0044330
:1044B000C2F800394A6932B3D0F83428097801F0DB
:1044C0000F03012199400A43C0F8342826E0264012
:1044D000C3F81069D3F8104944F40024C3F8104914
:1044E000D3F810496FF31204D8E7096919B100EB4A
:1044F0004512C2F8141900EB4510D0F8001941F02C
:104500000441C0F8001909E0C86808B1C3F8140BE9
:10451000D3F8000B40F00440C3F8000B002070BD3E
:10452000FFFF07E010B5036C134CA34203D9D0F88A
:10453000003B002B1EDB0023C0F8103BD0F8103BE3
:1045400043F40023C0F8103BD0F8103B43F01803AD
:10455000C0F8103BD0F8103B43F0C043C0F8103B0C
:10456000012907D1C0F8142BD0F8001B41F080219D
:10457000C0F8001B002010BD0A30544F4A780B7859
:10458000012A00EB43100BD0D0F8002B22F40012CC
:10459000C0F8002BC978032914D0022912D017E0E3
:1045A000D0F8002922F40012C0F80029C9780329A4
:1045B00001D002290CD1D0F8001941F08051C0F887
:1045C000001905E0D0F8001B41F08051C0F8001B35
:1045D000002070470A784B78D1B200EB4110012BD4
:1045E00012D0D0F8001B002906DB2AB1D0F8001B3E
:1045F00021F08041C0F8001BD0F8001B41F40011ED
:10460000C0F8001B00207047D0F80019002906DB15
:104610002AB1D0F8001921F08041C0F80019D0F873
:10462000001941F40011C0F80019EBE7F8B50C7857
:104630004F78774DE3B26FF0604600EB4313012FE4
:1046400026D0D3F8104B6FF31204C3F8104BD3F8F5
:10465000104B2C40C3F8104B4C69002C74D08D6863
:104660002C44641EB4FBF5F4D3F8105BA4B206EA44
:10467000C4463543C3F8105BD3F8105B8E686643BD
:10468000C6F312042543C3F8105B012A71D0A6E0DB
:104690004F691FB3D3F810796FF31207C3F810797D
:1046A000D3F810792F40C3F810794F698D682F44E3
:1046B0007F1EB7FBF5F506EAC545D3F8106935430B
:1046C000C3F81059D3F810594E69C6F31206354392
:1046D000C3F81059CD78012D10D01BE0D3F8106924
:1046E0002E40C3F81069D3F8105945F40025C3F8DB
:1046F0001059D3F810596FF3120509E0D3F8105987
:1047000025F0C045C3F81059D3F8105945F00055AD
:10471000C3F81059012A18D000EB4413D3F800490C
:1047200044F00444C3F80049CC78012C2FD04A69E6
:1047300062B3D0F83428097801F00F0301219940C1
:104740000A43C0F8342860E036E00A691AB100EB89
:104750004413C3F81429C97801290FD1D0F80818D7
:10476000C90500EB4411D1F8002903D442F00052EE
:1047700002E030E042F08052C1F8002900EB441022
:10478000D0F8001941F00441C0F800193DE0D0F81C
:104790000848E405D3F8004902D444F0005401E08D
:1047A00044F08054C3F8004900928A8A93B20A7890
:1047B000C96800F03FF928E0D3F8104B8D68C5F3C5
:1047C00012052C43C3F8104BD3F8104B44F40024CB
:1047D000C3F8104B59E7CA680AB1C3F8142BC9785B
:1047E00001290CD1D0F80808C005D3F8000B02D479
:1047F00040F0005001E040F08050C3F8000BD3F8C7
:10480000000B40F00440C3F8000B0020F8BD00008E
:10481000FFFF07E0816841F00101816000207047DF
:10482000002110220261054A491C914201D903204E
:1048300070470369DB06F7D400207047400D030082
:104840000022202343EA811101610549521C8A425A
:1048500001D90320704703699B06F7D400207047F5
:10486000400D0300D0F8080810F0060004D002281C
:1048700003D0062801D00F207047022070474069FE
:1048800000F001007047D0F81818D0F81C08084054
:1048900080B27047D0F81818D0F81C080840000CF7
:1048A000704710B5D0F81038D0F8342801F00F0454
:1048B00000EB4110E24002F00102D0F8080943EA9F
:1048C000C212104010BD00EB4111D1F8081BD0F806
:1048D0001408084070474169806908407047D21C3D
:1048E00010B59308002200F5805002E00468521CC5
:1048F00010C19A42FAD3084610BD10B5C26822F022
:10490000C042C260012902D029B1012010BDC16896
:1049100041F0005102E0C16841F08041C1603220A5
:10492000FCF7BEF9002010BDD0F8002822F4FE628A
:10493000C0F80028D0F800284FF4FE6303EA011104
:104940000A43C0F80028002070470000022A3ED128
:10495000264A274B0A449A4201D20F2138E0254AC1
:10496000254B0A449A4201D20E2131E0234A244BBE
:104970000A449A4201D20D212AE0224A224B0A44DB
:104980009A4201D20C2123E0204A214B0A449A4248
:1049900001D20B211CE01F4A1F4B0A449A4201D24C
:1049A0000A2115E01D4A1E4B0A449A420FD31D4AA4
:1049B0001D4B0A449A4201D2082109E01B4A1144C6
:1049C0001B4A914201D2072102E0062100E00921A1
:1049D000C26822F47052C260C2684FF4705303EA96
:1049E00081210A43C260002070470000405327FF26
:1049F00000350C00401E1BFF40420F0000DC0BFF87
:104A0000804F1200808CF9FE20D6130060B6E5FEC0
:104A100060E3160000D3CEFE40771B00C05BB3FE00
:104A2000C091210000CA91FE20753800E05459FE63
:104A3000E09C410010B5029C64B9DB1C9C0800EBB3
:104A40000230002300F5805002E004C902605B1CC4
:104A5000A342FAD3002010BDFEE70907090E002883
:104A600004DB00F1E02080F80014704700F00F0034
:104A700000F1E02080F8141D704702E008C8121F02
:104A800008C1002AFAD170477047002001E001C137
:104A9000121F002AFBD1704710B50D4A04460120B1
:104AA000C2E900100020906011462046FBF762FE2C
:104AB00008B1FBF75DFE2046FBF7B2FF0A21204656
:104AC000FBF75CFF2046FBF7FBFE80B210BD000049
:104AD000A45B002070B5164C0C2100252170657078
:104AE000A121A1700121E1700178217165718178A6
:104AF000A171C178E1710179217241796172817985
:104B0000A172C079E07264230C2221460948FDF7A6
:104B1000B5FDA571E57125726572A572E572214634
:104B2000BDE8704064230C220248FDF7A7BD0000D9
:104B3000EC070020680B0020FCF7B2B810B5002885
:104B400021D0114B0022001F196803E0814203D8D5
:104B50000A4649680029F9D152B11368841A9C4267
:104B600004D1006818441060104602E0506000E074
:104B7000186039B102680B1A934203D10B681A44CA
:104B800002604968416010BD0408002070B500F063
:104B90004FF8BCEEC00A244B002110EE100A80B280
:104BA000D88001F043FA0025204C012801D1587229
:104BB0002570D88840F27D2101F038FA012802D111
:104BC000022058722570D88840F22D5101F02EFA3B
:104BD000012802D1032058722570D88840F2AD71A7
:104BE00001F024FA012802D1042058722570D888D7
:104BF00040F6272101F01AFA012802D10520587247
:104C00002570D88840F6A84101F010FA012807D095
:104C10002078401CC0B22070142800D35D7270BD93
:104C20005D72257070BD0000FC510020C3010020A2
:104C300070B500252C4603211248FFF72DFF641C98
:104C4000E4B20544052CF6D300EE105AF1EE040A46
:104C5000B8EE400A80EE201ABCEEC10A10EE100A2F
:104C600080B2FBF7D4FB9FED081B53EC112BFBF735
:104C70005CFBFBF7D9FB00EE100ADFED050A20EE26
:104C8000200A70BD0C0800206666666666664A3FAC
:104C900000007A4410B510210B48FFF7FDFE00EE2E
:104CA000100A0A489FED0B1AB8EE400AD0ED000A30
:104CB00020EE200ADFED060A70EE600AB3EE090A64
:104CC00000EE810A10BD00000C080020E80700205B
:104CD0005C8F423F0000C84370B500252C4611216F
:104CE0000948FFF7D9FE6D1CEDB20444C82DF6D378
:104CF00000EE104ADFED050A0548B8EE400A80EEE6
:104D0000801A80ED001A70BD0C080020010070436D
:104D1000E80700202DE9F8431C4E04468846B07889
:104D2000844202D9E01E7070B4707078844202D25E
:104D30007470E01CB07000254FF0100970784FEAD5
:104D400045012844A04201D12D2200E0202200206C
:104D5000FDF770FFCDF8009070786F0042190123C5
:104D600039460A20FDF798FF7078284400EB40018F
:104D700008EB8102394614200C3AFDF7BEFF6D1C8A
:104D8000EDB2042DDAD3BDE8F8830000C3010020A2
:104D900038B5FFF7FBFE254C607A062829D2DFE8FC
:104DA00000F02828030A151E2078800721D1E0781A
:104DB000F8B1401E06E0207880071AD1E078032879
:104DC00017D2401CE070FDF7C1FE12E0E07880B120
:104DD00003280ED0215C01290BD9491E08E0E07898
:104DE00038B1032805D0215C2279914201D2491CB7
:104DF0002154E078012548B1012811D0022801D0C2
:104E000003280CD1BDE8384000F016B8084800214E
:104E10000090062380220846FDF7C6FE657038BD67
:104E200060780449FFF776FFA57038BDFC5100207B
:104E3000C6010020E60400200C484078082813D260
:104E4000DFE800F0120406080A0C0E1000F010B89B
:104E500000F02AB800F036B800F042B800F04AB8C6
:104E600000F052B800F05AB870470000FC51002022
:104E700010B50B4CE078022803D1A0780949FFF760
:104E800049FFE078032809D1A078022806D2DFE89C
:104E900000F00501BDE8104001F0DAB810BD0000D7
:104EA000FC5100203A0500200448C178022903D1B2
:104EB00080780349FFF72EBF70470000FC510020A7
:104EC0008E0500200448C178022903D18078034967
:104ED000FFF720BF70470000FC510020E2050020D2
:104EE000024803498078FFF715BF0000FC510020FD
:104EF00036060020024803498078FFF70BBF000008
:104F0000FC5100208A060020024803498078FFF700
:104F100001BF0000FC510020DE06002002480349CA
:104F20008078FFF7F7BE0000FC5100203207002018
:104F3000F0B500217C4DFF240B46AA1D6E5C012EAE
:104F40000ED1565C00EBC60696F80C6146B96C545F
:104F50004618545486F8CD3386F8D33386F8D933BF
:104F6000491CC9B20629E9D390F82C1390F8C23332
:104F700011B143F0100301E023F0300380F8C23395
:104F800080F8C61390F81C13DBB211B143F0010393
:104F900001E023F0030380F8C23380F8C41390F8D3
:104FA0002413DBB211B143F0400301E023F0C0034E
:104FB00080F8C23380F8C71390F8BC3290F8C2135F
:104FC00013B141F0040101E021F00C0180F8C2139B
:104FD00080F8C53390F83C3390F8C31313B141F017
:104FE000100101E021F0300180F8C31380F8CA33CA
:104FF00090F8541390F8C33311B143F0010301E06A
:1050000023F0030380F8C33380F8C81390F84413E7
:10501000DBB211B143F0400301E023F0C00380F89C
:10502000C33380F8CB1390F8143390F8C31313B143
:1050300041F0040101E021F00C0180F8C31380F875
:10504000C93300210FE0442969D0422967D04329A0
:1050500065D0362963D0462961D049295FD04729D8
:105060005DD041295BD000EBC10494F80C3193B3BF
:10507000002316788E421FD057788F421CD0977825
:105080008F4219D0D7788F4216D017798F4213D01C
:1050900057798F4210D0EE5CFF2E3CD10126EE54A2
:1050A000D154034494F80A6183F8CD6394F80C61F9
:1050B00083F8D36306232EE08E4204D194F80C616A
:1050C00080F8D36327E056788E4205D194F80C61BE
:1050D00080F8D4631FE022E096788E4204D194F8E1
:1050E0000C6180F8D56316E0D6788E4204D194F82E
:1050F0000C6180F8D6630EE016798E4204D194F8E4
:105100000C6180F8D76306E056798E4203D194F89B
:105110000C6180F8D8635B1CDBB2062BA9D3491C59
:10512000C9B257298FD3F0BDF807002070B50546E6
:10513000C1EBC100002405EB400600BF05EBC40035
:10514000818F806BFBF79AFE3119641CE4B281F801
:105150009A000E2CF2D370BD70B5002405464E1E89
:1051600005EBC400B442818855F8340001D1012216
:1051700000E00022FBF78EFE641CE4B2072CEFD3A4
:1051800070BD00000D4800F043FA0D4C012525705C
:1051900021780A48FFF7E0FF012000F0EDFC2178BC
:1051A0000648FFF7C3FF2078401CC0B220700728D4
:1051B000EED9024800F006F8E9E70000B0530020FD
:1051C0009807002010B500214FF49672431800EBA9
:1051D000C10493F8A830012B7ED094F81031022B33
:1051E00002D85B1C84F81031491CC9B20D29EDD3DB
:1051F0000021431800EBC10493F8B630012B6CD0AA
:1052000094F87831022B02D85B1C84F87831491C61
:10521000C9B20E29EDD30021431800EBC10493F865
:10522000C430012B7DD094F8E831022B02D85B1CEE
:1052300084F8E831491CC9B20E29EDD30021431886
:1052400000EBC10493F8D230012B73D094F858329C
:10525000022B02D85B1C84F85832491CC9B20D29B4
:10526000EDD30021431800EBC10493F8E030012B8B
:1052700068D094F8C032022B02D85B1C84F8C0328C
:10528000491CC9B20C29EDD30021431800EBC1041D
:1052900093F8EE30012B5DD094F82033022B02D826
:1052A0005B1C84F82033491CC9B20829EDD30021C6
:1052B000431800EBC10493F8FC30012B52D094F852
:1052C0006033022B02D85B1C84F86033491CC9B2DE
:1052D0000D29EDD3002201E010E019E04FEA0204AD
:1052E00000EBC201B1F80E31642B43D391F80C31BD
:1052F000022B4BD081F81041022344E0B4F80E3168
:1053000093423FF671AF5B1CA4F80E316CE708E0E6
:10531000B4F8763193423FF67AAF5B1CA4F876314D
:1053200075E7B4F8E631934284D85B1CA4F8E63103
:1053300080E7FFE7B4F8563293428ED85B1CA4F89E
:1053400056328AE7B4F8BE32934299D85B1CA4F86F
:10535000BE3295E7B4F81E339342A4D85B1CA4F880
:105360001E33A0E7B4F85E339342AFD85B1CA4F8B9
:105370005E33ABE7032B09D391F80C31012B05D039
:1053800081F81041012381F80C310AE091F81031C5
:10539000022B06D391F80C311BB1A1F80E4181F814
:1053A0000C41521CD2B2572A9AD310BD00B587B017
:1053B0001C2206496846FAF794FF0021684600F06F
:1053C000E7FB0349486007B000BD0000906F00088C
:1053D0009807002070B5054600200C4606462E545E
:1053E000401CC0B20828FAD30846FFF7A1FD94F884
:1053F000C203C00709D0287840F00100287094F853
:10540000C20340F0020084F8C20394F8C2034007CC
:1054100009D5287840F00200287094F8C20340F0C3
:10542000080084F8C20394F8C203C00609D528789E
:1054300040F00400287094F8C20340F0200084F883
:10544000C20394F8C203400609D5287840F008004A
:10545000287094F8C20340F0200084F8C20394F846
:10546000C303C00709D0287840F01000287094F8D2
:10547000C20340F0200084F8C20394F8C30340073D
:1054800009D5287840F02000287094F8C20340F035
:10549000200084F8C20394F8C303C00609D5287815
:1054A00040F04000287094F8C20340F0200084F8D7
:1054B000C20394F8C303400609D5287840F0800061
:1054C000287094F8C20340F0200084F8C203002042
:1054D0006E700122211891F8D9334BB991F8D3336A
:1054E000012B05D12E1891F8CD33B37081F8D92353
:1054F00091F8D333022B03D12B1891F8CD13997067
:10550000401CC0B20628E5D370BD0000054906481E
:10551000FFF760FF0448FFF7DDFA142000F02CFBD2
:10552000F4E70000B05300209007002000B587B0DA
:105530001C2206496846FAF7D4FE0021684600F0AE
:1055400027FB0349086007B000BD0000746F000826
:105550008C070020FBF7B2FCFDF75AFDFDF774F94C
:10556000FDF706F9FDF736F9FDF7DCF9FDF7FEF971
:10557000FDF75AFAFDF774FAFDF7AAFAFDF78CFA6F
:10558000FFF7AAFB00F0A4F900F0BAFAFDF740F922
:1055900000F0F9FAFEE701460020842900D0C81C7B
:1055A00070470000F0B50B30154D20F007010024C6
:1055B000144A0FE003688B420BD38B4205D95E1A65
:1055C00043184768C3E9006700E04368136002C0FE
:1055D00004E0021D10680028ECD12046002802D10A
:1055E000286808B10020F0BD064A07481060074A45
:1055F000121A22F00702C0E9002401202860D7E730
:105600000808002004080020BC5B0020B85D0020D2
:105610002DE9F047AB490225016085800A158160BC
:105620008281CA14016182828A148161828352005C
:1056300001628284530081628385016394008486C1
:10564000A1490126816386870164A0F844504FF088
:1056500004098164A0F84C9008250165A0F8545015
:105660004FF0100A8165A0F85CA020260166A0F822
:10567000646040278166A0F86C704FF0800C016771
:10568000A0F874C04FF4807C8167A0F87CC04FF410
:105690000078C0F88010A0F88480DFF83082C0F86D
:1056A0008880A0F88CC0C0F89010A0F89420C0F8B2
:1056B0009810A0F89C30C0F8A010A0F8A4402921B0
:1056C00080F80A113A2180F812113B2180F81A1152
:1056D0003C2180F822113D2180F82A113E2180F8DA
:1056E00032113F2180F83A1180F84271412180F84F
:1056F0004A11422180F85211432180F85A11442165
:1057000080F86211452180F86A11352180F8721104
:105710001E2180F87A111F2180F8821180F88A6199
:10572000212180F89211222180F89A11232180F8FA
:10573000A211242180F8AA11252180F8B211262176
:1057400080F8BA11272180F8C2112D2180F8CA11E2
:105750002E2180F8D2112A2180F8DA112B2180F82D
:10576000E211142180F8EA111A2180F8F21180F870
:10577000FA51152180F80212172180F80A121C2113
:1057800080F81212182180F81A120C2180F82212C7
:10579000122180F82A12132180F832122F2180F86A
:1057A0003A12302180F84212312180F84A12392110
:1057B00080F8521280F85A92162180F8621207215E
:1057C00080F86A12092180F872120A2180F87A1290
:1057D0000B2180F882120D2180F88A120E2180F8A8
:1057E00092120F2180F89A12332180F8A2123421EC
:1057F00080F8AA12282180F8B212E12180F8BA12AA
:105800001D2180F8C2121B2180F8CA12062180F8DF
:10581000D212192180F8DA12052180F8E212112142
:1058200080F8EA1280F8F2A2362180F8FA123721C5
:1058300080F80213382180F80A13E52180F812134A
:10584000E02180F81A13E32180F82213E22180F886
:105850002A132C2180F83213E62180F83A13E7212D
:1058600080F84213652180F84A13E42180F852132E
:10587000462180F85A13472180F86213482180F8A6
:105880006A13492180F872134A2180F87A134B2158
:1058900080F882134C2180F88A134D2180F89213EE
:1058A0004E2180F89A13522180F8A213502180F8DB
:1058B000AA13512180F8B2134F2180F8BA13BDE822
:1058C000F08700000004024000080240000002408F
:1058D00010B5FDF791F96420FFF72EF9FDF784F973
:1058E0006420FFF729F9FDF787F90021AE20FDF7C5
:1058F0001DFA00210846FDF719FA00211020FDF7D6
:1059000015FA00214020FDF711FA00218120FDF752
:105910000DFA0021CF20FDF709FA0021A120FDF7A3
:1059200005FA0021C820FDF701FA0021A620FDF7A5
:10593000FDF90021A820FDF7F9F900213F20FDF72E
:10594000F5F90021D320FDF7F1F900210846FDF714
:10595000EDF90021D520FDF7E9F900218020FDF7C0
:10596000E5F90021D920FDF7E1F90021F120FDF74B
:10597000DDF90021DA20FDF7D9F900211220FDF729
:10598000D5F90021DB20FDF7D1F900214020FDF7FA
:10599000CDF900212020FDF7C9F900210220FDF7F3
:1059A000C5F900218D20FDF7C1F900211420FDF774
:1059B000BDF90021A420FDF7B9F90021A620FDF7CB
:1059C000B5F90021AF20FDF7B1F90021AF20FDF7B7
:1059D000ADF9FDF7BBF80021BDE810400846FDF722
:1059E00013B90000094B5F221A60022806D0032871
:1059F00007D0042808D10548143004E003480C30CF
:105A000001E0024810300160704700002C0800409F
:105A10000921FFF7E7BFF0B50021012602274FF06B
:105A2000030E4C1CE2B201EB41031B2A00F82320B9
:105A300004D800EB8305AE70EA7012E0362A06D86F
:105A400000EB830CA1F11A058CF8027007E0572ACD
:105A500007D800EB830CA1F135058CF802E08CF837
:105A6000035015460D2A04D800EB83014E710D71C9
:105A70002EE01B2A04D800EB83020C39577126E074
:105A8000292A05D800EB83021A3982F805E01EE0C6
:105A9000362A05D8042500EB83022839557116E013
:105AA000422A05D8052500EB8302353955710EE0F1
:105AB0004A2A05D8062500EB83024139557106E0D4
:105AC000572D05D8072500EB83024939557111710F
:105AD000E1B25729A5D3F0BD0421FFF783BF000031
